:020000001928BD
:100008007E1480314E01961A8C1E0C28EF25172875
:10001800161A0C1E1128EC2617280B1B1A1C172859
:10002800101C1728BB257E1009001A2800308400F0
:10003800863085004D308600003087001030C3269A
:100048005330840083308500A0308600003087005C
:100058004230C326FA01FB012030840000308500BD
:100068001A30C9267E104001422AC3017F290B306D
:10007800C0004008F2003F08DE25A73E8600870141
:1000880081010B30C0004008F2003F08DE25A63E83
:10009800860087018101810AC3019B290130C000C4
:1000A8000B30C1004108F2003F08DE25A73E86005C
:1000B8008701400881070B30C0004008F2003F0864
:1000C800DE25A43E860087010B30C1004108F200FE
:1000D8003F08DE25A73E84008501000801020318B9
:1000E80095280B30C0004008F2003F08DE25A73EE7
:1000F8008600870181010B30C0004008F2003F08EC
:10010800DE25A83E860087010108C1000B30C20029
:100118004208F2003F08DE25A13E8600870141081B
:1001280081070B30C0004008F2003F08DE25A13EE1
:1001380086008701010A031DC528FE30C0000B3068
:10014800C1004108F2003F08DE25A13E8600870174
:10015800400881000230C0000B30C1004108F200A5
:100168003F08DE25A63E86008701400881000B3047
:10017800C0004008F2003F08DE25A73E8600870140
:100188008101C301C30A9B290130C0000B30C100A3
:100198004108F2003F08DE25A73E86008701400897
:1001A80081070B30C0004008F2003F08DE25A43E5E
:1001B800860087010B30C1004108F2003F08DE25A8
:1001C800A73E8400850100080102031809290B30A5
:1001D800C0004008F2003F08DE25A73E86008701E0
:1001E80081010B30C0004008F2003F08DE25A83E20
:1001F800860087010B30C1004108F2003F08DE2568
:10020800A13E84008501010880020B30C00040082F
:10021800F2003F08DE25A53E86008701FE30010674
:10022800031943290B30C0004008F2003F08DE25BF
:10023800A53E860087010B30C1004108F2003F0847
:10024800DE25A13E8400850100080102031C432924
:100258000B30C0004008F2003F08DE25A53E8600AE
:1002680087010108C1000B30C2004208F2003F08B4
:10027800DE25A13E860087014108810068290B30F0
:10028800C0004008F2003F08DE25A53E8600870131
:10029800FE300106031DC5280B30C0004008F200DF
:1002A8003F08DE25A13E86008701023001020318BF
:1002B800C5280B30C0004008F2003F08DE25A13EEB
:1002C800860087018101810A0B30C0004008F200D6
:1002D8003F08DE25A63E860087018101810ABB28EA
:1002E8000B30C0004008F2003F08DE25A63E86001D
:1002F800870181019B290B30C0004008F2003F08AC
:10030800DE25A63E860087010108C100C201420819
:10031800003A0319902974294108003A03193B2827
:10032800013A03195228033A0319C82874293F08C7
:10033800BA24400143080800C301242A0B30C00036
:100348004008F2003F08DE25A73E860087018101AC
:100358000B30C0004008F2003F08DE25A63E8600AC
:1003680087018101810AC3013D2A0130C0000B3099
:10037800C1004108F2003F08DE25A73E860087013C
:10038800400881070B30C0004008F2003F08DE2516
:10039800A43E860087010B30C1004108F2003F08E7
:1003A800DE25A73E840085010008010203180B2AF8
:1003B8000B30C0004008F2003F08DE25A73E86004B
:1003C800870181010B30C0004008F2003F08DE259C
:1003D800A13E86008701FE300106031DFE290B3071
:1003E800C0004008F2003F08DE25A13E86008701D4
:1003F80081010B2AFE30C0000B30C1004108F20019
:100408003F08DE25A13E86008701400881000B30A9
:10041800C0004008F2003F08DE25A63E860087019E
:100428008101810AC301C30A3D2A0B30C00040087C
:10043800F2003F08DE25A63E8600870181013D2A9D
:100448000B30C0004008F2003F08DE25A63E8600BB
:1004580087010108C100C2014208003A0319352A80
:10046800192A4108003A0319A229013A0319B9299E
:10047800192A3F08BA2440014308080010268B17A0
:100488000B17FF30F2000630F300D526FC30F200DF
:100498000630F300CF26F530F2000630F300DB26F5
:1004A800103049266F26400135080319602A5F2459
:1004B800013A031D602AB50134080319682A310876
:1004C800031D682AD722B4013308031DBC2ACC2A8D
:1004D800F9264001B001B00ACC2ABC26003A03191B
:1004E800CC2AE72673084001A5007208A4002F351E
:1004F8004D3E860087012408C03F2508C13F0130D2
:10050800CA004A08AF0708302F020318AF01A2013A
:10051800A301CC014C354D3E86008701403FCA00FF
:10052800413FCB004A08A2074B08A33D0130CA004F
:100538004A08CC0708304C02031C8E2A2308CB003B
:100548002208CA00CB36CA0CCB36CA0CCB36CA0C2A
:100558004A08A2004B08A3000330230220300319E5
:1005680022020318B92AB201B20AB301B001CC2A97
:100578003008CA00CB014B08003A0319C42ABA2A2A
:100588004A08003A03196C2A013A0319712ABA2A4F
:10059800400132080319D52ADE244001B201B10115
:1005A800B10A6400572A8E1C2B2B95304101B800E4
:1005B8000330B9009530C3000330C4004030400117
:1005C8002102003003192002031C272BA03041010F
:1005D800A2000130A300FE304001C40044084101DC
:1005E800A100A60196304001C40044084101A400BE
:1005F800A030AD000130AE00AC01B1019630400131
:10060800C40044084101AF003930CE000030CF00AB
:10061800FF304001C40044084101CD0002304001D0
:10062800C40044084101D200D001D00A3930D900B1
:100638000030DA0050304001C40044084101D800BD
:10064800DD01DB01DB0A4001181118144D2BCD30F8
:100658004101B8000530B900CD30C3000530C400F1
:100668008E30A2000430A3008E30AD000430AE00FE
:100678009530CE000330CF009530D9000330DA0032
:100688003F3040012102FF3003192002031C1815D6
:100698001810FF233F08A1003E08A00008000034FE
:1006A80000348E3404340034FE3400340034013411
:1006B80037340534013400348E3404340034FE34C5
:1006C8000034003401344D340534023400348E349F
:1006D80004340034193400340034013479340534D6
:1006E800033400348E3404340034193400340034B4
:1006F80001348F340534043400348E340434003427
:100708005034003400340134633405340534003483
:100718008E34043400345034003400340134A534A9
:1007280005340B30C0004008F2003F08DE25A53E26
:10073800860087010108C1000B30C2004208F200A0
:100748003F08DE25A13E86008701410881000B3065
:10075800C0004008F2003F08DE25A43E860087015D
:1007680081010B30C0004008F2003F08DE25A63E9C
:100778008600870181010B30C0004008F2003F0865
:10078800DE25A73E8600870181013F08BA24013093
:100798000800400198019A010A3092000330940041
:1007A80001307E01CE00B801B901CF01BA01D001F4
:1007B8003F30BB003F30D1003F30BC003F30D2005B
:1007C800D510D414D3140430F2000730F300DB261C
:1007D8004E01161601307D01C3000C307E019400D5
:1007E8000930A3000E30A4000B3095000A30A20097
:1007F8000D30A50008003908F5003808F40037085E
:10080800F3003608F2004C30F9009530F8007F30DC
:10081800F7002D30F600302401307207B6000030A2
:10082800733DB7000030743DB8000030753DB90025
:100838003608C0003708C1003808C2003908C300AC
:100848001130C336C20CC10CC00C890B252C4108D1
:10085800BF004008BE0008000030BD000030BC00EA
:100868000030BB000030BA00721C422C7608BA0770
:100878007708BB3D7808BC3D7908BD3D0130F635A9
:10088800F70DF80DF90D890B432C0130F536F40CF2
:10089800F30CF20C890B4A2C750874047304720467
:1008A800031D382C3D08F5003C08F4003B08F30014
:1008B8003A08F2000800AE01C801C9010B30C400B3
:1008C8004408F2004908DE25A23E86008701403F21
:1008D800C600413FC7004908C4004408BF00470894
:1008E8008A0046080A0084314001C5004508C80747
:1008F8000130C4004408C90706304902031C622CB1
:1009080005304802031C8B2CAE01AE0A8C2CAE01BC
:100918002E0808000B30C0004008F2003F08DE2512
:10092800A13E8600870181010B30C0004008F2001B
:100938003F08DE25A43E8600870181010B30C000F8
:100948004008F2003F08DE25A63E860087018101A7
:100958000B30C0004008F2003F08DE25A73E8600A5
:10096800870181013F08BA2401300800BE000B301E
:10097800BA003A08F2003E08DE25A13E860087014B
:100988000108BB00BC01BB35BC0DBB35BC0D3B0829
:10099800F6003C08F7000B30BD003D08F2003E08A9
:1009A800DE25A93E86008701413F8A00403F0A00B4
:1009B80084310800181112148E304101B800043037
:1009C800B9008E30C3000430C400A030A20001304A
:1009D800A300FE30F2007208A1000A30F20072088B
:1009E800A4008E30AD000430AE008E30CE0004304E
:1009F800CF008E30D9000430DA00080044018F019E
:100A0800900109309100F6308D003C308C004E0189
:100A1800101044010D084001A90044010C084001D0
:100A2800A8004E011A140230F2000730F300CF2656
:100A3800113044018E00080040304B019F00F03017
:100A48009D0060309C001D08FB001C08FA004E0148
:100A58008C1296160330F2000730F300D52690303A
:100A68004B019E000800FF30F6050330F7054601EC
:100A78000E1E482D0630F635F70D890B3F2D7708E9
:100A88008D0076088C00080077088D0076088C00A9
:100A98000800FF30F6050330F7054601121E5E2DEB
:100AA8000630F635F70D890B552D77089100760835
:100AB80090000800770891007608900008007708F1
:100AC800F9007608F800F936F80CF936F80C7808C9
:100AD80046019D0076080339F8000530F835FF3ED9
:100AE800031D722D78359C0008007708F9007608F8
:100AF800F800F936F80CF936F80C78084601950034
:100B080076080339F8000530F835FF3E031D882DB7
:100B18007835940008007708F9007608F800F93667
:100B2800F80CF936F80C780846019900760803396C
:100B3800F8000530F835FF3E031D9E2D78359800E6
:100B480008007708F9007608F800F936F80CF93645
:100B5800F80C780847018D0076080339F80005304D
:100B6800F835FF3E031DB42D78358C0008001010B1
:100B780040012908F1002808F0001F264001260836
:100B880027040319080027088A0026080A00853167
:100B980008007F30C0000B30C1004108F2003F0858
:100BA800DE25A13E86008701400881003F08BA245F
:100BB80001300800F500F401751CE62D7208F300F9
:100BC8007308F4070310F20D0310F50C7508031DE4
:100BD800E02D740808008C127B084B019D007A08F0
:100BE8009C0040012A082B04031908002B088A00DE
:100BF8002A080A0085310800FF340334FF3403341F
:100C0800FF340334FF340334FF340334FF34033434
:100C1800FF340334FF3403343C26CD236326F12606
:100C28009E26B5262E2620258E26A626852696269D
:100C3800AE260225080044010E1D292E0E1071084B
:100C48008D0070088C000E14080071088D00700863
:100C58008C0008000130450190008F019101FF30A0
:100C68008D008C014E019010803045018E000800E7
:100C780006304F0196008030970047309800990160
:100C8800D1309A001E309B000800F3007308F20070
:100C9800F20DF20D41011D087206033972069D001E
:100CA8001D14080040015D085E040319602E5E08EB
:100CB8008A005D080A0086317E01D51008001030D0
:100CC80051018D008F019101033093009001920131
:100CD800101808006C2E0D30F2000030F3007B264F
:100CE800FF233F08A1003E08A000D7220800720891
:100CF800FF3E4001B600FF30733DB700B801B901AF
:100D08000800E33041019E009F019B019C010130D6
:100D18009D000800803047018E007F308D00C03074
:100D28008C0008008030460196007F309500C03066
:100D3800940008008F304601920001309100FF3086
:100D4800900008008F3046018E0001308D00FF3082
:100D58008C00080080309E007F309D00C0309C00D1
:100D6800080080309A007F309900C0309800080051
:100D7800031041019D1C03140030093D0800FE00CA
:100D880012001E00FE0BC42E0034640080010131E5
:100D9800890BCA2E003473084001A7007208A60008
:100DA800080073084001AB007208AA000800730825
:100DB8004001DE007208DD0008002908F10028085B
:100DC800F0001F2608001C08F3001B08F2000800AA
:100DD8007E01D51C080056260800823052018C007E
:100DE8000800B401B40AE126080041019D14080076
:100DF800B301B30A0800B501B50A080008000800E5
:020E08000800E0
:020000040001F9
:08000000FF3FFF3FFF3FFF3F00
:0A000E009C1FFE3DFF3FFF1FFF3F58
:00000001FF
