:020000001928BD
:100008007E1480314E01961A8C1E0C28FF25172865
:10001800161A0C1E1128352717280B1B1A1C17280F
:10002800101C1728EC257E1009001A28443084007B
:10003800863085004D30860000308700103011274B
:100048008830840083308500A03086000030870027
:1000580042301127FA01FB0120308400003085006E
:100068001A3017277E104001722A4001C3019F29C8
:100078000B30C0004008F2003F081126A73E86005A
:10008800870181010B304001C0004008F2003F08A1
:100098001126A63E860087018101810A4001C3011D
:1000A800BC290130C0000B30C1004108F2003F08F4
:1000B8001126A73E860087014001400881070B30C2
:1000C800C0004008F2003F081126A43E86008701C0
:1000D8000B304001C1004108F2003F081126A73E3D
:1000E800840085010008010203189E280B30400196
:1000F800C0004008F2003F081126A73E860087018D
:1001080081010B304001C0004008F2003F08112671
:10011800A83E8600870101084001C1000B30C200DB
:100128004208F2003F081126A13E860087014001DF
:10013800410881070B304001C0004008F2003F0829
:100148001126A13E86008701010A031DD228FE3030
:100158004001C0000B30C1004108F2003F081126E1
:10016800A13E860087014001400881000230C0009E
:100178000B30C1004108F2003F081126A63E860058
:1001880087014001400881000B30C0004008F200A0
:100198003F081126A73E8600870181014001C3015F
:1001A800C30ABC290130C0000B30C1004108F2006D
:1001B8003F081126A73E86008701400140088107B5
:1001C8000B30C0004008F2003F081126A43E86000C
:1001D80087010B304001C1004108F2003F08112699
:1001E800A73E840085010008010203181C290B3072
:1001F8004001C0004008F2003F081126A73E8600D3
:10020800870181010B304001C0004008F2003F081F
:100218001126A83E860087010B304001C100410825
:10022800F2003F081126A13E8400850101088002E2
:100238000B304001C0004008F2003F081126A53EDF
:1002480086008701FE30010603195D290B30400145
:10025800C0004008F2003F081126A53E860087012D
:100268000B304001C1004108F2003F081126A13EB1
:100278008400850100080102031C5D290B30400140
:10028800C0004008F2003F081126A53E86008701FD
:1002980001084001C1000B30C2004208F2003F08CB
:1002A8001126A13E860087014001410881000B30DC
:1002B80087290B304001C0004008F2003F08112692
:1002C800A53E86008701FE300106031DD2280B30AB
:1002D8004001C0004008F2003F081126A13E8600F8
:1002E8008701023001020318D2280B304001C000F8
:1002F8004008F2003F081126A13E860087018101CF
:10030800810A0B304001C0004008F2003F08112666
:10031800A63E860087018101810A0B304001C92869
:100328000B30C0004008F2003F081126A63E8600A8
:1003380087018101BC290B30C0004008F2003F084A
:100348001126A63E8600870101084001C100C201AE
:100358004208003A0319B12994294108003A0319BF
:100368003C28013A03195528033A0319D628942939
:1003780040013F0801254001430808004001C3012E
:10038800522A0B30C0004008F2003F081126A73E51
:100398008600870181010B304001C0004008F2004F
:1003A8003F081126A63E860087018101810A400187
:1003B800C3016C2A0130C0000B30C1004108F200B3
:1003C8003F081126A73E86008701400140088107A3
:1003D8000B30C0004008F2003F081126A43E8600FA
:1003E80087010B304001C1004108F2003F08112687
:1003F800A73E84008501000801020318372A0B3044
:100408004001C0004008F2003F081126A73E8600C0
:10041800870181010B304001C0004008F2003F080D
:100428001126A13E86008701FE300106031D282AF9
:100438000B304001C0004008F2003F081126A13EE1
:10044800860087018101372AFE304001C0000B3049
:10045800C1004108F2003F081126A13E860087012D
:100468004001400881000B304001C0004008F20004
:100478003F081126A63E860087018101810A4001B6
:10048800C301C30A6C2A0B30C0004008F2003F08C1
:100498001126A63E8600870181016C2A0B30C00018
:1004A8004008F2003F081126A63E86008701010891
:1004B8004001C100C2014208003A0319642A472AD0
:1004C8004108003A0319C529013A0319DE29472AC8
:1004D80040013F08012540014308080054268B17B6
:1004E8000B174730F2000730F30023274330F200A0
:1004F8000730F3001D273A30F2000730F3002927B0
:1005080010309A268D26400135080319912A9F2418
:10051800013A031D912A4001B5014001340803192D
:100528009B2A3108031D9B2A0A234001B401330882
:10053800031DEF2AFF2A4B274001B001B00AFF2A0A
:100548000327003A0319FF2A2F2773084001A50043
:100558007208A4002F354D3E860087012408C03F4D
:100568002508C13F0130CA004A08AF0708302F02EA
:100578000318AF01A201A301CC014C354D3E860002
:100588008701403FCA00413FCB004A08A2074B08F9
:10059800A33D0130CA004A08CC0708304C02031CAE
:1005A800C12A2308CB002208CA00CB36CA0CCB3696
:1005B800CA0CCB36CA0C4A08A2004B08A300033069
:1005C80023022030031922020318EC2AB201B20ACE
:1005D800B301B001FF2A3008CA00CB014B08003A2A
:1005E8000319F72AED2A4A08003A03199F2A013A03
:1005F8000319A42AED2A400132080319082B2725DC
:100608004001B201B101B10A6400872A40018E1C81
:100618005F2BCA304101B8000330B900CA30C300AB
:100628000330C40040304001210200300319200289
:10063800031C5B2BC2304101A2000130A300FE3035
:100648004001C40044084101A100A60196304001C0
:10065800C40044084101A400C230AD000130AE001E
:10066800AC01B10196304001C40044084101AF001B
:100678003930CE000030CF00FF304001C4004408BC
:100688004101CD0002304001C40044084101D200BC
:10069800D001D00A3930D9000030DA00503040019A
:1006A800C40044084101D800DD01DB01DB0A400138
:1006B80018111814812BD9304101B8000530B90040
:1006C800D930C3000530C400D030A2000430A300E4
:1006D800D030AD000430AE00CA30CE000330CF00B9
:1006E800CA30D9000330DA003F3040012102FF3020
:1006F80003192002031C18151810082440013F088C
:10070800A1003E08A000080000340034D0340434AE
:100718000034FE3400340034013422340634013409
:100728000034D03404340034FE340034003401344E
:100738003334063402340034D034043400341934E9
:100748000034003401349734053403340034D03491
:10075800043400341934003400340134AD34053421
:1007680004340034D03404340034503400340034B9
:1007780001348134053405340034D0340434003471
:100788005034003400340134C33405340B30400194
:10079800C0004008F2003F081126A53E86008701E8
:1007A80001084001C1000B30C2004208F2003F08B6
:1007B8001126A13E860087014001410881000B30C7
:1007C800C0004008F2003F081126A43E86008701B9
:1007D80081010B304001C0004008F2003F0811269B
:1007E800A63E8600870181010B304001C000400809
:1007F800F2003F081126A73E8600870181014001CB
:100808003F0801250130080040013908F500380883
:10081800F4003708F3003608F2004C30F900953040
:10082800F8007F30F7002D30F6006D240130720794
:100838004001B6000030733DB7000030743DB80089
:100848000030753DB9003608C0003708C1003808C7
:10085800C2003908C3001130C336C20CC10CC00C29
:10086800890B302C4108BF004008BE000800400139
:1008780098019A010A3092000330940001307E01F9
:10088800CE00B801B901CF01BA01D0013F30BB0099
:100898003F30D1003F30BC003F30D200D510D414D7
:1008A800D3145030F2000730F30029274E011616F2
:1008B80001307D01C3000C307E0194000930A30093
:1008C8000E30A4000B3095000A30A2000D30A500B0
:1008D800080000304001BD000030BC000030BB0003
:1008E8000030BA00721C812C76084001BA077708DC
:1008F800BB3D7808BC3D7908BD3D0130F635F70DA4
:10090800F80DF90D890B822C0130F536F40CF30C37
:10091800F20C890B892C7508740473047204031D86
:10092800762C40013D08F5003C08F4003B08F30034
:100938003A08F20008004001AE01C801C9010B30B5
:10094800C4004408F20049081126A23E8600870127
:10095800403F4001C600413FC7004908C400440861
:10096800BF0047088A0046080A0084314001C500D4
:100978004508C8070130C4004408C90706304902C1
:10098800031CA32C05304802031CCD2CAE01AE0A73
:10099800CE2CAE012E0808000B304001C0004008E4
:1009A800F2003F081126A13E8600870181010B3025
:1009B8004001C0004008F2003F081126A43E86000E
:1009C800870181010B304001C0004008F2003F0858
:1009D8001126A63E8600870181010B304001C00028
:1009E8004008F2003F081126A73E860087018101D2
:1009F80040013F080125013008004001BE000B30CE
:100A0800BA003A08F2003E081126A13E8600870186
:100A180001084001BB00BC01BB35BC0DBB35BC0D9A
:100A28003B08F6003C08F7000B30BD003D08F2001B
:100A38003E081126A93E86008701413F8A00403FB3
:100A48000A0085310800400118111214D030410104
:100A5800B8000430B900D030C3000430C400C2303C
:100A6800A2000130A300FE30F2007208A1000A3093
:100A7800F2007208A400D030AD000430AE00D030CF
:100A8800CE000430CF00D030D9000430DA0008009E
:100A980044018F01900109309100F6308D003C30FF
:100AA8008C004E01101044010D084001A9004401BA
:100AB8000C084001A8004E011A144E30F20007300D
:100AC800F3001D27113044018E00080040304B010F
:100AD8009F00F0309D0060309C001D08FB001C0842
:100AE800FA004E018C1296164F30F2000730F300D0
:100AF800232790304B019E0008007708F9007608FC
:100B0800F800F936F80CF936F80C780846019D001B
:100B180076080339F8000530F835FF3E031D902D9F
:100B280078359C0008007708F9007608F800F9364F
:100B3800F80CF936F80C7808460195007608033960
:100B4800F8000530F835FF3E031DA62D78359400D2
:100B580008007708F9007608F800F936F80CF93635
:100B6800F80C78084601990076080339F800053032
:100B7800F835FF3E031DBC2D78359800080077082E
:100B8800F9007608F800F936F80CF936F80C780808
:100B980047018D0076080339F8000530F835FF3E27
:100BA800031DD22D78358C0008007F304001C0002D
:100BB8000B30C1004108F2003F081126A13E860013
:100BC80087014001400881003F08012501300800E5
:100BD8004E01101040012908F1002808F000632692
:100BE8004001260827040319080027088A00260858
:100BF8000A00853108004E018C127B084B019D00CC
:100C08007A089C0040012A082B04031908002B08C5
:100C18008A002A080A0086310800F500F401751CCC
:100C2800192E7208F3007308F4070310F20D03106D
:100C3800F50C7508031D132E74080800FF30F6051F
:100C48000330F70546010E1E2E2E0630F635F70D39
:100C5800890B2A2E77088D0076088C000800FF3053
:100C6800F6050330F7054601121E3F2E0630F6350D
:100C7800F70D890B3B2E7708910076089000080045
:100C8800FF340334FF340334FF340334FF340334B4
:100C9800FF340334FF340334FF340334FF340334A4
:100CA80080263B24B4263F27F326E32672266A25AE
:100CB800D326FB26CA26EB26DB264C250800440152
:100CC8000E1D6D2E0E1071088D0070088C000E140C
:100CD800080071088D0070088C000800013045017B
:100CE80090008F019101FF308D008C014E01901012
:100CF800803045018E00080006304F019600803094
:100D08009700473098009901D1309A001E309B0017
:100D180008000D30F2000030F300C026082440011E
:100D28003F08A1003E08A0000A230800F30073084A
:100D3800F200F20DF20D41011D0872060339720628
:100D48009D001D14080040015D085E040319B12EC2
:100D58005E088A005D080A0086317E01D510080009
:100D6800103051018D008F019101033093009001E3
:100D7800920110180800BD2E7208FF3E4001B6000F
:100D8800FF30733DB700B801B9010800E3304101F5
:100D98009E009F019B019C0101309D00080080304E
:100DA80047018E007F308D00C0308C0008008030F5
:100DB80046019E007F309D00C0309C0008008030B6
:100DC80046019A007F309900C030980008008030B2
:100DD800460196007F309500C030940008008F309F
:100DE8004601920001309100FF30900008008F30DA
:100DF80046018E0001308D00FF308C000800031082
:100E080041019D1C03140030093D080040012908D8
:100E1800F1002808F00063260800FE0012001E00FA
:100E2800FE0B122F0034640080010131890B182F4A
:100E3800003473084001A7007208A6000800730870
:100E48004001AB007208AA00080073084001DE00E8
:100E58007208DD00080041011C08F3001B08F200BD
:100E680008007E01D51C0800A72608004001B4012F
:100E7800B40A0A270800823052018C000800400199
:100E8800B301B30A08004001B501B50A08004101E1
:0A0E98009D1408000800080008007F
:020000040001F9
:08000000FF3FFF3FFF3FFF3F00
:0A000E009C1FFE3DFF3FFF1FFF3F58
:00000001FF
