:0400000052EF00F0CB
:100008004D82FACF02F0FBCF03F0E9CF04F0EACF3C
:1000180005F0E1CF06F0E2CF07F0D9CF08F0DACF4C
:1000280009F0F3CF0AF0F4CF0BF0F6CF0CF0F7CFCE
:100038000DF0F8CF0EF0F5CF0FF09DB09EA009D0CF
:100048009E90FD0ECF6E8F0ECE6E424A432ADEEC96
:1000580004F09DBA9EAA04D0AE5050EC04F09E9ACB
:100068000FC0F5FF0EC0F8FF0DC0F7FF0CC0F6FF7C
:100078000BC0F4FF0AC0F3FF09C0DAFF08C0D9FFBC
:1000880007C0E2FF06C0E1FF05C0EAFF04C0E9FFC0
:1000980003C0FBFF02C0FAFF4D92110016EF04F0F7
:1000A800000E226EE8EC02F0226E030E2218D8A48D
:1000B8003CD0A8C060F049684A68490E106E000E2E
:1000C800116E0001605198EC03F0A9C061F0490E6F
:1000D800106E000E116E0001615198EC03F0000ED5
:1000E8000001836F000E826F020E236E16D023501C
:1000F800010DA80EF324D96E000EF420DA6E620EFC
:1001080000018225E16E000E00018321E26EDFCF3F
:10011800E7FF0001824B832B232A4450235CD8A09D
:10012800E6D7020E466E000E446E84EC04F0020E12
:100138004618D8A412000001835105E1020E0001FF
:10014800825DD8A01200020E0001825F000E835B60
:10015800000E236E10D0490E106E000E116E235043
:10016800010D620EF324D96E000EF420DA6EDF5012
:1001780098EC03F0232A23501B6E1C6A000182515D
:100188001B5C000183511C58D8A0E5D7010E000163
:1001980082251B6E000E000183211C6E620E1B243B
:1001A800D96E000E1C20DA6EDF501D6E1D501F6EBA
:1001B8001E6A620E00018225D96E000E000183219D
:1001C800DA6EDF50206E216A1E5020261F50212231
:1001D8004950201806E14A502118D8A402D0010E2F
:1001E800456E000E466E1200000E1D6E000E1C6E4F
:1001F800000E196E000E1F6E000E1E6E000E206E91
:10020800000E1B6E000E1A6E00016251116E000185
:1002180063511C6E11C01DF000016451116E000184
:1002280065511E6E11C01FF066C019F01E501C24C7
:10023800116E1F501D20126E125004E10C0E115C3D
:10024800D8A004D0030E75EC04F01200100E0001C3
:10025800856F48C084F0000E0001A76F040EA66FDA
:1002680062C086F063C087F064C088F065C089F01A
:10027800000E206E41D02050116E126AD8901136AF
:100288001236060E1126000E1222620E1124D96EA5
:10029800000E1220DA6EDF50136E2050146E156AAD
:1002A800D89014361536050E1426000E1522620E47
:1002B8001424D96E000E1520DA6EDF50166E165013
:1002C800186E176A135017241A6E000E18201B6E2A
:1002D80020501C24116E000E1D20126ED89011366D
:1002E8001236260E1124D96E000E1220DA6E1AC0AC
:1002F800DEFF1BC0DDFF202A2050116E126A1E503F
:10030800115C1F501258D8A0B6D7B5EC04F01200F3
:10031800000E166E000E156E000E186E000E176E8B
:10032800000E1A6E000E196E00016251116E000166
:100338006351156E11C016F000016451116E000171
:100348006551176E11C018F017501524116E18500A
:100358001620126E125004E10C0E115CD8A004D0C5
:10036800020E75EC04F01200030E0001856F48C000
:1003780084F0000E0001A76F010EA66F000E0001A9
:10038800866F000E1A6E000E196E38D0195015249B
:10039800116E1A501620126ED89011361236260E8B
:1003A8001124D96E000E1220DA6EDECF13F0DDCFE5
:1003B80014F0860E0001A625D96E000E0001A721B3
:1003C800DA6E1450DF6E010E0001A625116E000EC4
:1003D8000001A721126E860E1124D96E000E12207C
:1003E800DA6E13C0DFFF020E0001A627000EA72356
:1003F8000001A6050001866F194A1A2A1750195CD0
:1004080018501A58D8A0C2D7B5EC04F012004B689F
:100418004C68000E3F6E000E3E6EC80E3E24D96E2C
:10042800000E3F20DA6E84C0DFFF3E4A3F2A4B0EA3
:10043800106E000E116E0001845198EC03F0C80E86
:100448003E24D96E000E3F20DA6E85C0DFFF3E4A9B
:100458003F2A4B0E106E000E116E0001855198EC6C
:1004680003F0000E416E000E406E1FD0860E402431
:10047800D96E000E4120DA6EC80E3E24E16E000EE1
:100488003F20E26EDFCFE7FF3E4A3F2A4B0E106E59
:10049800000E116E860E4024D96E000E4120DA6ED1
:1004A800DF5098EC03F0404A412A0001A651405C15
:1004B8000001A7514158D8A0D9D7C80E3E24D96EFB
:1004C800000E3F20DA6E4BC0DFFF3E4A3F2AC80EBF
:1004D8003E24D96E000E3F20DA6E4C50DF6E3E4A45
:1004E8003F2A66EC04F0000E476E1200D3EC04F0CD
:1004F80091EC04F0020EBFEC04F0F28CF28E8B98B3
:100508008B968B948B92ECEC03F026C024F0010EB2
:10051800241624468B502418FD0B24188B6E273480
:100528002730256E2630246E010E241624462446D4
:100538008B502418FB0B24188B6E26C024F027C080
:1005480025F0253425322432253425322432010E73
:1005580024162446244624468B502418F70B2418C6
:100568008B6E26C024F027C025F02534253224328E
:10057800253425322432253425322432010E24161E
:10058800243A8B502418EF0B24188B6E82A003D0CA
:10059800246A242A01D0246A24502A6E2B6A2CC08B
:1005A8002EF02DC02FF0E90E425C030E4358D8A060
:1005B80006D0000E436E000E426E304A312A300ECD
:1005C8003B6E390E3A6E9FD7000E136E000E126EF8
:1005D800040E446441D048500001A819D8A438D06A
:1005E8000001A905D8B419D0020E0001A919D8B480
:1005F80014D0030E0001A919D8B40FD0040E0001BD
:10060800A919D8B40AD0050E0001A919D8B405D083
:10061800060E0001A919D8A405D0000E136E080E05
:10062800126E1CD00F0E0001A919D8B405D0100EF7
:100638000001A919D8A408D0090E0001AE25126E30
:10064800136A000E13220AD0000E446E000E120028
:10065800000E446E010E1200020E12004450106E7D
:10066800116A1250101806E113501118D8A402D0BC
:10067800030E1200020E1200000E166E000E156E0A
:10068800000E146E000E136E000E176E00016251FC
:10069800116E00016351156E11C016F0000164510E
:1006A800116E00016551136E11C014F0060E0001A1
:1006B800856F48C084F0000E0001A76F040EA66F76
:1006C800165004E10B0E155CD8A004D0030E75EC8F
:1006D80004F027D0D8901534D96E1634DA6E260E69
:1006E800D926000EDA2213C0DEFF14C0DDFF000E8B
:1006F800176E030E176401D014D01750010D620E47
:10070800F324D96E000EF420DA6E1750010D860E10
:10071800F324E16E000EF420E26EDFCFE7FF172A24
:10072800E8D7B5EC04F01200186E10C0D9FF11C05C
:10073800DAFFDECF12F0DDCF13F01850146E156A11
:100748001250141A1350151A10C0D9FF11C0DAFF2D
:1007580014C0DEFF15C0DDFF000E1A6E080E196EFC
:1007680019501A10D8B4120010C0D9FF11C0DAFFFE
:10077800DECF12F0DDCF13F012A01ED0010E126EE4
:10078800A00E136E10C0D9FF11C0DAFFDECF14F02F
:10079800DDCF15F0D8901530176E1430166E125044
:1007A800161A1350171A10C0D9FF11C0DAFF16C055
:1007B800DEFF17C0DDFF08D010C0D9FF11C0DAFF77
:1007C800D890DC32DD50DF321906D8A01A06C8D717
:1007D8004750D8A40BEC02F054EC00F0CDEC04F038
:1007E8000009D8B41200485000016019D8A41200BA
:1007F8000DD08CEC01F0120040EC03F01200F8EC84
:1008080000F01200010E75EC04F0120000016151B5
:10081800030AD8B4EED7050AD8B4EED7160AD8B466
:10082800EED7F0D700EE60F0880EEE6AE806FDE13C
:1008380000EE26F0220EEE6AE806FDE1C20EF66E24
:10084800090EF76E000EF86E00EE48F010EE05F097
:100858000900F5CFEEFFE550E150FAE14D904D92D9
:10086800000EF86E00017AEF02F0000E166E000E10
:10087800156E0BD015501124D96E16501220DA6E51
:10088800DF50C7EC04F0154A162A1350155C1450B3
:100898001658D8B01200EED7016E4450010DA80EBC
:1008A800F324D96E000EF420DA6E01C0DFFF442A6B
:1008B800200E446402D0000E446E000E3D6E000E01
:1008C8003C6E1200C80E116E000E126E3EC013F080
:1008D8003FC014F039EC04F0000E3F6E000E3E6E7F
:1008E8001200106E105080090001856F48C084F016
:1008F800000E0001A76F000EA66FB5EC04F0120001
:100908003D5004E1FA0E3C5CD8A01200000E3D6E8A
:10091800000E3C6E000E446E1200000E896E070E2B
:10092800926E000E8A6E000E936E000E8B6E810E14
:10093800946E1200CD8E300ECD12CD92000ECF6E79
:10094800000ECE6E9E909D80CD801200140EAF6E6C
:10095800240EAC6E900EAB6E949C948E9E9A9D8ADB
:1009680012004750D8A41200000E416E000E406ECF
:10097800010E476E1200106E10C048F0D8EC04F05B
:10098800DBEC04F01200106EACA2FED710C0ADFF75
:10099800120045C010F0000E456E10501200FC0EFB
:1009A800D316D3B61200FDD7AAEC04F012009EECC1
:0F09B80004F012003C4A3D2A120001FFFFFFFF2E
:020000040020DA
:08000000FFFFFFFFFFFFFFFF00
:020000040030CA
:0E000000FFC60E1E1C9D81FF000000000000C8
:00000001FF
