:1000000080313128080008007E1480314E01961E90
:100010000A280B2813288C1E0E280F281328873136
:10002000592780312F28161E162817281F280C1E26
:100030001A281B281F288F31D72780312F280B1F04
:10004000222823282F281A1C262827282F28101C6E
:100050002A282B282F288631D52680312F287E105C
:10006000090080313328B7308400873085004D3057
:1000700086000030870010308F318A278031B830F9
:10008000840084308500A030860000308700423034
:100090008F318A278031FA01FB0120308400003043
:1000A00085001A308F31842780317E1040018331E2
:1000B0001E2B4001C301292A0B30C0004008F2006A
:1000C0003F08873144278031A73E860087018101A0
:1000D0000B304001C0004008F2003F088731442740
:1000E0008031A63E860087018101810A4001C3015B
:1000F000482A0130C0000B30C1004108F2003F081F
:10010000873144278031A73E86008701400140089F
:1001100081070B30C0004008F2003F0887314427B8
:100120008031A43E860087010B304001C1004108A8
:10013000F2003F08873144278031A73E84008501C3
:10014000000801020318A528A628D0280B3040017A
:10015000C0004008F2003F08873144278031A73EA5
:100160008600870181010B304001C0004008F20089
:100170003F08873144278031A83E86008701010867
:100180004001C1000B30C2004208F2003F08873135
:1001900044278031A13E8600870140014108810744
:1001A0000B304001C0004008F2003F08873144276F
:1001B0008031A13E86008701010A031DE028E12865
:1001C0000E29FE304001C0000B30C1004108F20092
:1001D0003F08873144278031A13E860087014001D6
:1001E000400881000230C0000B30C1004108F2001D
:1001F0003F08873144278031A63E860087014001B1
:10020000400881000B30C0004008F2003F088731F1
:1002100044278031A73E8600870181014001C30148
:10022000C30A482A0130C0000B30C1004108F20067
:100230003F08873144278031A73E8600870140016F
:10024000400881070B30C0004008F2003F088731AA
:1002500044278031A43E860087010B304001C10055
:100260004108F2003F08873144278031A73E8400CF
:1002700085010008010203183E293F2966290B3039
:100280004001C0004008F2003F0887314427803118
:10029000A73E8600870181010B304001C000400865
:1002A000F2003F08873144278031A83E860087014D
:1002B0000B304001C1004108F2003F08873144275C
:1002C0008031A13E84008501010880020B3040018D
:1002D000C0004008F2003F08873144278031A53E26
:1002E00086008701FE300106031977297829CE2977
:1002F0000B304001C0004008F2003F08873144271E
:100300008031A53E860087010B304001C1004108C5
:10031000F2003F08873144278031A13E84008501E7
:1003200000080102031C95299629CE290B304001B3
:10033000C0004008F2003F08873144278031A53EC5
:100340008600870101084001C1000B30C20042084D
:10035000F2003F08873144278031A13E86008701A3
:100360004001410881000B30C0004008F2003F0806
:10037000873144278031A63E860087018101810AAA
:100380000B304001C0004008F2003F08873144278D
:100390008031A73E8600870181010E290B30400184
:1003A000C0004008F2003F08873144278031A53E55
:1003B00086008701FE300106031DDF29E0290E2992
:1003C0000B304001C0004008F2003F08873144274D
:1003D0008031A13E86008701023001020318F12915
:1003E000F2290E290B304001C0004008F2003F08FE
:1003F000873144278031A13E860087018101810A2F
:100400000B304001C0004008F2003F08873144270C
:100410008031A63E860087018101810A0B304001B0
:10042000C0004008F2003F08873144278031A73ED2
:100430008600870181010E290B30C0004008F200C0
:100440003F08873144278031A63E8600870181011D
:10045000482A0B30C0004008F2003F08873144278B
:100460008031A63E8600870101084001C100C2011B
:100470004208003A03193D2A1C2A4108003A031990
:100480005C28013A03197928033A031912291C2A16
:1004900040013F088631362680314001430808007C
:1004A0004001C301FA2A0B30C0004008F2003F08A7
:1004B000873144278231A73E8600870181010B30B6
:1004C0004001C0004008F2003F08873144278231D4
:1004D000A63E860087018101810A4001C301162BD7
:1004E0000130C0000B30C1004108F2003F088731E5
:1004F00044278231A73E86008701400140088107DA
:100500000B30C0004008F2003F0887314427823199
:10051000A43E860087010B304001C1004108F20073
:100520003F08873144278231A73E840085010008B7
:10053000010203189C2A9D2ADB2A0B304001C000CF
:100540004008F2003F08873144278231A73E8600E9
:10055000870181010B304001C0004008F2003F08D4
:10056000873144278231A13E86008701FE30010693
:10057000031DBB2ABC2ACA2A0B304001C000400818
:10058000F2003F08873144278231A13E860087016F
:100590008101DB2AFE304001C0000B30C100410860
:1005A000F2003F08873144278231A13E860087014F
:1005B0004001400881000B304001C0004008F200BB
:1005C0003F08873144278231A63E8600870181019A
:1005D000810A4001C301C30A162B0B30C00040083A
:1005E000F2003F08873144278231A63E860087010A
:1005F0008101162B0B30C0004008F2003F08873104
:1006000044278231A63E8600870101084001C100CF
:10061000C2014208003A03190E2BED2A4108003AA4
:100620000319532A013A0319702AED2A40013F08A1
:1006300086313626823140014308080086310B2678
:1006400083318B170B176030F2000F30F3008F31BE
:10065000782783316430F2000F30F3008F317E272A
:1006600083319030F2000F30F3008F3172278331E5
:1006700010308F31F327833187316D27833140016B
:1006800035080319442B452B4F2B853135258331F4
:10069000013A031D4C2B4D2B4F2B4001B50140015E
:1006A00034080319542B552B5F2B3108031D592B8C
:1006B0005A2B5F2B8331E72383314001B401330888
:1006C0000319632B642BD62BC62B8F315D27833107
:1006D0004001B001B00AD62B8F3197278331003A01
:1006E0000319732B742BD62B8F316C27833173082E
:1006F0004001A5007208A4002F354D3E86008701F9
:100700002408C03F2508C13F0130CA004A08AF078E
:1007100008302F02031C8D2B8E2B8F2BAF01A201D3
:10072000A301CC014C354D3E86008701403FCA00F5
:10073000413FCB004A08A2074B08A33D0130CA0045
:100740004A08CC0708304C02031CA72BA82B922B7D
:100750002308CB002208CA00CB36CA0CCB36CA0C01
:10076000CB36CA0C4A08A2004B08A3000330230270
:100770002030031922020318BE2BBF2BC12BB2015C
:10078000B20AB301B001D62BB001D62B3008CA0093
:10079000CB014B08003A0319CE2BC42B4A08003A70
:1007A0000319652B013A03196C2BC42B4001320845
:1007B0000319DB2BDC2BE32B8631602683314001D0
:1007C000B201B101B10A64003F2B803131284001F0
:1007D0008E1CEB2BEC2B402C6E304101B80004300A
:1007E000B9006E30C3000430C40040304001210223
:1007F000003003192002031CFE2BFF2B3C2C503031
:100800004101A2000230A300FE304001C4004408B0
:100810004101A100A60196304001C40044084101F5
:10082000A4005030AD000230AE00AC01B1019630F2
:100830004001C40044084101AF005930CE000030EF
:10084000CF00FF304001C40044084101CD00023018
:100850004001C40044084101D200D001D00A5930FF
:10086000D9000030DA0050304001C4004408410192
:10087000D800DD01DB01DB0A400118111814652CDA
:10088000BE304101B8000630B900BE30C3000630AA
:10089000C400FA30A2000430A300FA30AD000430E6
:1008A000AE006E30CE000430CF006E30D900043080
:1008B000DA003F3040012102FF3003192002031803
:1008C000622C632C642C181518108531A2258331F5
:1008D00040013F08A1003E08A00008000B30400185
:1008E000C0004008F2003F08873144278431A53E0C
:1008F0008600870101084001C1000B30C200420898
:10090000F2003F08873144278431A13E86008701E9
:100910004001410881000B30C0004008F2003F0850
:10092000873144278431A43E8600870181010B3042
:100930004001C0004008F2003F088731442784315D
:10094000A63E8600870181010B304001C0004008AF
:10095000F2003F08873144278431A73E8600870193
:10096000810140013F08863136268431013008007C
:1009700000340034FA3404340034FE3400340034DB
:1009800001348034073401340034FA340434003440
:10099000FE3400340034013493340734023400341C
:1009A000FA3404340034193400340034013402348D
:1009B000073403340034FA34043400341934003476
:1009C000003401341834073404340034FA34043465
:1009D00000345034003400340134EC34063405342F
:1009E0000034FA3404340034503400340034013418
:1009F0002E3407340B304001C0004008F2003F089D
:100A0000873144278431A13E8600870181010B3064
:100A10004001C0004008F2003F088731442784317C
:100A2000A43E8600870181010B304001C0004008D0
:100A3000F2003F08873144278431A63E86008701B3
:100A400081010B304001C0004008F2003F088731AF
:100A500044278431A73E86008701810140013F0879
:100A6000863136268431013008004001AE01C801CC
:100A7000C9010B30C4004408F200490887314427FB
:100A80008531A23E86008701403F4001C600413FBC
:100A9000C7004908C4004408BF0047088A00460848
:100AA0000A0085314001C5004508C8070130C4006F
:100AB0004408C90706304902031C5F2D602D392DFB
:100AC00005304802031C652D662D692DAE01AE0A66
:100AD0006A2DAE012E08080000304001BD00003034
:100AE000BC000030BB000030BA00721C782D792D9C
:100AF000822D76084001BA077708BB3D7808BC3DD7
:100B00007908BD3D0130F635F70DF80DF90D890B6B
:100B1000832D0130F536F40CF30CF20C890B8A2D81
:100B20007508740473047204031D972D982D752D98
:100B300040013D08F5003C08F4003B08F3003A088A
:100B4000F200080040013908F5003808F4003708C1
:100B5000F3003608F2004C30F9009530F8007F3091
:100B6000F7002D30F60085316C2585310130720794
:100B70004001B6000030733DB7000030743DB8004E
:100B80000030753DB9003608C0003708C10038088C
:100B9000C2003908C3001130C336C20CC10CC00CEE
:100BA000890BCC2D4108BF004008BE000800400161
:100BB00098019A010A3092000330940001307E01BE
:100BC000CE00B801B901CF01BA01D0013F30BB005E
:100BD0003F30D1003F30BC003F30D200D510D4149C
:100BE000D3140230F2000030F3008F3172278531C8
:100BF0004E01161601307D01C3000C307E019400B9
:100C00000930A3000E30A4000B3095000A30A2007A
:100C10000D30A50008008731F22786318531D725B0
:100C200086318731E42786318F31682786318F31CD
:100C3000A62786318F31B62786318731D627863170
:100C40008631A52686318F31C62786318F319E2782
:100C500086318F31E02786318F31AE2786318F3153
:100C6000BE27863186318526863108004001BE00C8
:100C70000B30BA003A08F2003E088731442786312B
:100C8000A13E8600870101084001BB00BC01BB35C5
:100C9000BC0DBB35BC0D3B08F6003C08F7000B3023
:100CA000BD003D08F2003E08873144278631A93E49
:100CB00086008701413F8A00403F0A0086310800D4
:100CC000400118111214FA304101B8000430B90083
:100CD000FA30C3000430C4005030A2000230A30038
:100CE000FE30F2007208A1000A30F2007208A4007F
:100CF000FA30AD000430AE00FA30CE000430CF0040
:100D0000FA30D9000430DA00080044018F01900164
:100D100009309100F6308D003C308C004E011010EF
:100D200044010D084001A90044010C084001A8003D
:100D30004E011A14FF30F2000730F3008F317E2786
:100D40008631113044018E00080040304B019F0075
:100D5000F0309D0060309C001D08FB001C08FA006C
:100D60004E018C1296160330F2000030F3008F31E2
:100D70007827863190304B019E0008007F3040017B
:100D8000C0000B30C1004108F2003F088731442702
:100D90008631A13E860087014001400881003F085E
:100DA000863136268631013008004E011010400190
:100DB0002908F1002808F0008731A6278631400174
:100DC000260827040319E52EE62EEB2E27088A00B5
:100DD00026080A00863108007708F9007608F8002E
:100DE000F936F80CF936F80C780846019D007608BB
:100DF0000339F8000530F835FF3E031DFB2E78352A
:100E00009C0008007708F9007608F800F936F80C1D
:100E1000F936F80C78084601950076080339F80091
:100E20000530F835FF3E031D112F7835940008007A
:100E30007708F9007608F800F936F80CF936F80C5E
:100E400078084601990076080339F8000530F8352E
:100E5000FF3E031D272F7835980008007708F9001A
:100E60007608F800F936F80CF936F80C78084701DE
:100E70008D0076080339F8000530F835FF3E031D74
:100E80003D2F78358C000800F500F401751C492FC2
:100E90004A2F4E2F7208F3007308F4070310F20D67
:100EA0000310F50C7508031D562F572F462F740895
:100EB00008004E018C127B084B019D007A089C00B3
:100EC00040012A082B040319662F672F6C2F2B086B
:100ED0008A002A080A00873108000D30F20000302D
:100EE000F3008F31E92787318531A2258731400111
:100EF0003F08A1003E08A0008331E72387310800A6
:100F0000FF30F6050330F70546010E1E882F892FA6
:100F10008E2F0630F635F70D890B8A2F77088D0056
:100F200076088C000800FF30F6050330F70546010F
:100F3000121E9B2F9C2FA12F0630F635F70D890B23
:100F40009D2F7708910076089000080044010E1D3F
:100F5000AA2FAB2FB22F0E1071088D0070088C00D5
:100F60000E14B62F71088D0070088C000800FF3435
:100F70000334FF340334FF340334FF340334FF34C9
:100F80000334FF340334FF340334FF3403344001AB
:100F90005D085E040319CD2FCE2FD32F5E088A0083
:100FA0005D080A0087317E01D51008000130450137
:100FB00090008F019101FF308D008C014E01901047
:100FC000803045018E000800103051018D008F01E6
:100FD00091010330930090019201101CF02FF12F2A
:100FE000ED2F080006304F01960080309700473003
:100FF00098009901D1309A001E309B00080008002B
:101EBA0041019D1408004001B501B50A080040011E
:101ECA00B301B30A0800823052018C0008004101B4
:101EDA001C08F3001B08F200080073084001DE002A
:101EEA007208DD00080073084001AB007208AA00FE
:101EFA00080073084001A7007208A60008006400E1
:101F0A0080010131890B852F0034FE0012001E006A
:101F1A00FE0B8B2F00344001B401B40A8F31CE2757
:101F2A008F310800031041019D1C03140030093D44
:101F3A0008008F3046018E0001308D00FF308C0082
:101F4A0008008F304601920001309100FF30900066
:101F5A0008008030460196007F309500C03094001A
:101F6A000800803046019A007F309900C0309800FE
:101F7A000800803046019E007F309D00C0309C00E2
:101F8A000800803047018E007F308D00C0308C0001
:101F9A00080040012908F1002808F0008731A62727
:101FAA008F3108007E01D51CDB2FDC2FDF2F873114
:101FBA00C7278F310800E33041019E009F019B0132
:101FCA009C0101309D0008007208FF3E4001B600E6
:101FDA00FF30733DB700B801B9010800F300730878
:101FEA00F200F20DF20D41011D0872060339720664
:061FFA009D001D1408000B
:020000040001F9
:08000000FF3FFF3FFF3FFF3F00
:0A000E009C1FFE3DFF3FFF1FFF3F58
:00000001FF
