:060000000A128A11122809
:10000800FE00030EF2000408F3000A08F40083124D
:1000180003137F08F5000A128A11B1280A128A11FF
:1000280015280A128A11FB270A128A11DC000A1203
:100038008A11FC270A128A11DD000A128A11FD278B
:100048000A128A11DE000A128A11FE270A128A1180
:10005800DF000A128A11FF270A128A11E0008317AB
:1000680090308400C6300A128A15C2270A128A11F3
:100078008313A0308400E4300A128A15C2270A12BA
:100088008A11203084004D300A128A15C227F601E1
:10009800F701F801F90183010A128A116B2F831203
:1000A80003134E08D0004D08CF000310D00CCF0C1E
:1000B8000310D00CCF0C4F0895004D080339CF0022
:1000C80004300310CF0DFF3E031D65281708CF39F4
:1000D8004F0497000800831603138C120C1281300A
:1000E8009900831203139817181398121816981169
:1000F8008316031398139816181218150C128312E6
:1001080003138C12831603138C160800F100710870
:10011800F0007908C43E8400700883138000013021
:10012800F0007008F907213079020318F901F60187
:10013800F70108000A128A15B7270A128A110A124B
:100148008A11C3200A128A110A128A15D3270A12A1
:100158008A110A128A15AC2708000A128A119A27EE
:100168000A128A11750883120313FF0074088A00A3
:1001780073088400720E8300FE0E7E0E09000F3095
:10018800831603139F04FF308500FF308600FF307D
:1001980087000712871107110713871708008312B2
:1001A8000313CE004E08CD004D08DC000A128A1554
:1001B800B3270A128A110A128A15AF270800831278
:1001C80003134508CF004408CE00A6300A128A114E
:1001D800BD2783120313C401C5010800831203134A
:1001E800CD0083160313981CF528831203134D08BA
:0401F8009900080062
:10020000FF1B0A2983137F1883170008840A031928
:10021000FF0A08007F087F398A000408840A03194E
:10022000FF0A82000034C034C1340134C3340334C3
:100230000234C234C63406340734C7340534C534F6
:10024000C4340434CC340C340D34CD340F34CF34B6
:10025000CE340E340A34CA34CB340B34C9340934A6
:100260000834C834D83418341934D9341B34DB3446
:10027000DA341A341E34DE34DF341F34DD341D34F6
:100280001C34DC341434D434D5341534D734173416
:100290001634D634D23412341334D3341134D13426
:1002A000D0341034F03430343134F1343334F33466
:1002B000F23432343634F634F7343734F5343534F6
:1002C0003434F4343C34FC34FD343D34FF343F34B6
:1002D0003E34FE34FA343A343B34FB343934F934A6
:1002E000F83438342834E834E9342934EB342B3406
:1002F0002A34EA34EE342E342F34EF342D34ED34F6
:10030000EC342C34E43424342534E5342734E73415
:10031000E63426342234E234E3342334E134213425
:100320002034E034A03460346134A1346334A33425
:10033000A23462346634A634A7346734A5346534F5
:100340006434A4346C34AC34AD346D34AF346F34B5
:100350006E34AE34AA346A346B34AB346934A934A5
:10036000A83468347834B834B9347934BB347B3445
:100370007A34BA34BE347E347F34BF347D34BD34F5
:10038000BC347C34B43474347534B5347734B73415
:10039000B63476347234B234B3347334B134713425
:1003A0007034B034503490349134513493345334E5
:1003B00052349234963456345734973455349534F5
:1003C000943454349C345C345D349D345F349F34B5
:1003D0009E345E345A349A349B345B3499345934A5
:1003E0005834983488344834493489344B348B3405
:1003F0008A344A344E348E348F344F348D344D34F5
:100400004C348C3444348434853445348734473414
:100410004634863482344234433483344134813424
:10042000803440340034C134813440340134C03429
:10043000803441340134C034803441340034C13418
:10044000813440340134C034803441340034C13408
:10045000813440340034C134813440340134C034F8
:10046000803441340134C034803441340034C134E8
:10047000813440340034C134813440340134C034D8
:10048000803441340034C134813440340134C034C8
:10049000803441340134C034803441340034C134B8
:1004A000813440340134C034803441340034C134A8
:1004B000813440340034C134813440340134C03498
:1004C000803441340034C134813440340134C03488
:1004D000803441340134C034803441340034C13478
:1004E000813440340034C134813440340134C03468
:1004F000803441340134C034803441340034C13458
:10050000813440340134C034803441340034C13447
:10051000813440340034C134813440340134C03437
:10052000803441340134C034803441340034C13427
:10053000813440340034C134813440340134C03417
:10054000803441340034C134813440340134C03407
:10055000803441340134C034803441340034C134F7
:10056000813440340034C134813440340134C034E7
:10057000803441340134C034803441340034C134D7
:10058000813440340134C034803441340034C134C7
:10059000813440340034C134813440340134C034B7
:1005A000803441340034C134813440340134C034A7
:1005B000803441340134C034803441340034C13497
:1005C000813440340134C034803441340034C13487
:1005D000813440340034C134813440340134C03477
:1005E000803441340134C034803441340034C13467
:1005F000813440340034C134813440340134C03457
:10060000803441340034C134813440340134C03446
:10061000803441340134C034803441340034C13436
:100620008134403483120313D601D701D301D8019A
:10063000D901DA01D401D5012208CF00D0014F0839
:10064000D000CF0123084F07D60000300318013037
:100650005007D7002408CF00D0014F08D000CF01A9
:1006600025084F07D8000030031801305007D90083
:100670002608CF004F08D30020084C06031D782B16
:10068000DA015A08CF00D00159085002031D4A2B45
:1006900058084F02031808005A08CF004F07053EBC
:1006A000223E840083130008D000D1015008D100FD
:1006B000D0015A08D2005207063E223E84000008AC
:1006C0005007D4000030031801305107D5005608F8
:1006D0005A07CF004F07903E8400540883178000CC
:1006E000840A550880000130CF004F08DA07412BFB
:1006F00058085607CF0059080318590A5707D00061
:10070000003050020C3003194F02031C8C2B0330B5
:100710000A128A11DF270800103083120313CF005A
:100720004F0883160313A100831203135C08CF0044
:100730004F0883160313A0000430C2000030C3002A
:10074000831203132208CF004F0883160313A2005D
:10075000831203132308CF004F0883160313A3004B
:10076000831203132408CF004F0883160313A40039
:10077000831203132508CF004F0883160313A50027
:1007800083120313DA015A08CF00D001590850022E
:10079000031DCC2B58084F020318FA2B5A08CF0020
:1007A0004F07053E223E840083130008D000D1018C
:1007B0005008D100D0015A08D2005207063E223E0E
:1007C000840000085007D40000300318013051079E
:1007D000D50056085A07CF004F07903E84005408B2
:1007E00083178000840A550880000130CF004F082D
:1007F000DA07C32B0A128A15DC27080083120313B9
:10080000DA010A128A116D260A128A118312031361
:10081000D8005808DA0003305A06031D5E2C8316F0
:100820000313440883120313D8005808A000FF30B4
:10083000DD00FF30DE005D30D8005808CD00200814
:100840000A128A11CF260A128A1183160313450849
:1008500083120313D8005808A1005D30D80058084F
:10086000CD0021080A128A11CF260A128A1183129A
:100870000313C201C3010230D8005808DB00790815
:100880005B020318592C5B08C43E840083130008E4
:10089000D8004208223E8400580880000130C20778
:1008A0000318C30A0030C3070130D8005808DB071B
:1008B0003F2C0230D8005808CA00F9010A128A15E4
:1008C000E6270A128A110230831203134A06031D17
:1008D000080000304302023003194202031C0800E2
:1008E0000230C2020030031CC303C302DB015B08F9
:1008F000D800D90143085902031D802C4208580230
:100900000318972C5D30D8005808CD005B08223EB4
:100910008400831300080A128A11CF260A128A1152
:10092000013083120313D8005808DB07772C4208E4
:10093000223E840083130008D8004208013E223E74
:1009400084005E080006031DA72C5D085806031DE1
:10095000AB2CF801F80ACA010800FF308312031318
:10096000DF00FF30E000C401C50183160313200837
:1009700083120313D8004408A63E84005808831746
:1009800080000130C4070318C50A0030C5075F3076
:10099000D8005808CD008316031320080A128A11C4
:1009A000CF260A128A118316031321088312031318
:1009B000D8004408A63E8400580883178000013000
:1009C000C4070318C50A0030C5075F30D8005808AF
:1009D000CD008316031321080A128A11CF260A12AA
:1009E0008A1183120313C601C70183160313430838
:1009F000831203134702031D032D831603134208BA
:100A000083120313460203182E2D4608A23E8400CB
:100A100083130008D8004408A63E840058088317B2
:100A200080000130C4070318C50A0030C5075F30D5
:100A3000D8005808CD004608A23E84008313000861
:100A40000A128A11CF260A128A1101308312031367
:100A5000C6070318C70A0030C707F52C5F08D8007F
:100A60004408A63E84005808831780000130C4075C
:100A70000318C50A0030C5076008D8004408A63E20
:100A80008400580880000130C4070318C50A0030EC
:100A9000C5070A128A11E32083120313CB01080051
:100AA00083120313D301D401D501D601D701D80194
:100AB0002208CF00D0014F08D000CF0123084F07F4
:100AC000D3000030031801305007D4002408CF00B1
:100AD000D0014F08D000CF0125084F07D5000030C6
:100AE000031801305007D60020084C0603190800EF
:100AF00055085307CF0056080318560A5407D0006C
:100B0000003050020C3003194F02031C8C2D0230B0
:100B10000A128A11DF270800033083120313CF0063
:100B20004F0883160313A100831203135C08CF0040
:100B30004F0883160313A0000130C2000030C30029
:100B4000A20183120313D701D80156085802031DCE
:100B5000AB2D550857020318EB2D57085307CF004C
:100B60004F07903E840083170008D100840A0008D4
:100B7000D2005208CF00831603134208A23E84001D
:100B8000831203134F08831380005108CF0083168C
:100B900003134208013EA23E8400831203134F0850
:100BA0008000023083160313C2070318C30A003003
:100BB000C3074208FF3E83120313CF004F0883167A
:100BC0000313A200013083120313D7070318D80AB6
:100BD0000030D807A52D0A128A15DC2708008312D9
:100BE0000313D301D401D101D201D5012208CF00D2
:100BF000D0014F08D000CF0123084F07D3000030A9
:100C0000031801305007D4002408CF00D0014F084A
:100C1000D000CF0125084F07D10000300318013064
:100C20005007D2000630CF004F0883160313A100EF
:100C3000831203135C08CF004F0883160313A00030
:100C40000430C2000030C3008312031320084C0696
:100C5000031D362E5308CF004F07903E84005108E5
:100C600083178000840A5208800008000030540274
:100C70000B3003195302031C442E03300A128A114D
:100C8000DF270A128A11692E831203135308CF003B
:100C90004F07903E8400510883178000840A520851
:100CA0008000D501043055020318692E5508223EF4
:100CB000840083130008CF005508A23E84004F082B
:100CC00080000130CF004F08D50704305502031CC7
:100CD000562E0A128A15DC27080083120313CF014F
:100CE000D00105307902031CBD2E8316031344087E
:100CF000831203135C060319802E4C080319BA2EC5
:100D00008316031345030319992E02304506031970
:100D1000992E033045060319992E04304506031910
:100D2000992E053045060319992E06304506031DF8
:100D30009F2E083083120313CF000030B52E0F30E2
:100D40008316031345060319A92E10304506031D0B
:100D5000B72E4A08093E83120313CD000030031852
:100D60000130CE004D08CF004E08D000BF2EF90153
:100D700000300800F901013008000230080079084D
:100D80008312CD00CE0150084E06031DC92E4F0818
:100D90004D06031DCD2E03300800023008008312DB
:100DA0000313D2004D08840083130008CE00840A88
:100DB0000008CF004F08CE00CF014E08D4004F08E6
:100DC000D5004D0884000008CE00840A0008CF003A
:100DD000FF304E05D60000304F05D70052085606AA
:100DE000CE004E08D3005308123E84008230031810
:100DF000013EFF000A128A1100210A128A11CE0058
:100E000054084E06D6005508D7005308123E8400F9
:100E100081300318013EFF000A128A110021CE0022
:100E2000CF014E08D4004F08D5005408CF00CE01A2
:100E300056084E04D00057084F04D1004D088400D6
:100E4000500883138000840A510880000800831230
:100E500003134B080319352F87150A128A11AD2485
:100E60000A128A118312031387110A128A11FE23B0
:100E70000A128A110A128A15CA270A128A11003A1E
:100E8000031908008312031320085C0603195D2F61
:100E90004C08031908005D2F0A128A11502508001A
:100EA0000A128A11EF2508000A128A11122308007B
:100EB00001300A128A11DF27080083120313210868
:100EC000033A03194C2F053A0319502F163A031908
:100ED000542F582F08000A128A119E200A128A11D4
:100EE00001300A128A11D3200A128A11D0308312DB
:100EF0000313CD000030CE000A128A1153200A12CB
:100F00008A110A128A1127270A128A1103308312C2
:100F100003134902E93003194802031C812FC80159
:100F2000C9010130831603179A0703189B0A003082
:100F30009B07812F8B1A0B1DAD2F0B116530831270
:100F4000031381000130C8070318C90A0030C9071C
:100F50000A128A15BB270A128A11831603138C1EE4
:100F60000800831203138C1E08001A080A128A1143
:100F70008A20831203138C12080083120313D100FA
:100F8000D201D3014F085302031DC82F4E0852024D
:100F90000318080052085107D00050088400831736
:100FA00000080A128A11F2200A128A1101308312F3
:100FB0000313D2070318D30A0030D307C22F8312BA
:100FC0000313CE0020084C06031908004E08803891
:100FD000CD004D0883160313A100831203135C0890
:100FE000CD004D0883160313A000C201C3010A12ED
:100FF0008A15DC2708000134FF34FF34FF34FF3446
:101F58008B170B1708000A128A15F12708000A12B6
:101F68008A116F200800831603138F0108000130BF
:101F7800F6070318F70A0030F70708006400800125
:101F8800840A0406031900340406C32F7808831250
:101F98000313CD004D08CE00F8014E0808000F309D
:101FA8008312031397002030950097121712080028
:101FB800831203134B08031D0800C601C701CB0198
:101FC800CB0A080000307702FA3003197602031CA6
:101FD8000800F601F701F901080083160313010848
:101FE800F839043881008112011281110B11831212
:081FF800031381018B160800A0
:04400E00AAF7BCFF52
:00000001FF
